S31508000000901F002001010008F9100008D50E00080D
S31508000010F5100008710A0008A32600080000000071
S315080000200000000000000000000000000522000893
S31508000030750A000800000000011A0008612300087C
S315080000401B0100081B0100081B010008A51D00086C
S315080000501B0100081B0100081B0100081B01000802
S315080000601B0100081B010008790A00081B0100088B
S315080000701B0100081B0100081B0100081B010008E2
S315080000801B0100081B0100081B0100081B010008D2
S315080000901B0100081B0100081B010008ED0A0008E7
S315080000A01B0100081B0100081B0100081B010008B2
S315080000B01B010008C52300081B0100081B010008D6
S315080000C01B0100081B0100081B0100081B01000892
S315080000D01B01000839240008952400081B010008A4
S315080000E01B0100081B0100081B010008DFF80CD0E3
S315080000F000F0C2FB00480047B5380008901F0020F2
S315080001000648804706480047FEE7FEE7FEE7FEE7A3
S31508000110FEE7FEE7FEE7FEE7FEE7FEE765230008E3
S31508000120ED000008F0B480EA0102D40F4200B2EBF9
S31508000130410F02D20246084611464A0042D0C30D74
S31508000140DDB2C1F3C752AD1A202D35DAC1F3160157
S3150800015041F4000204B15242C5F1200602FA06F142
S315080001602A411044B3EBD05F23D0C4B1012DA0EBD4
S31508000170C35009DCF0BC4FF0004202EAC352DBB2BE
S3150800018000F5000000F0D5BA400000F1807000EBE1
S31508000190C350A0F1807040EAD170490009E04908CF
S315080001A041EAC071A0EBC35000F50000400800EB1F
S315080001B0C350F0BC00F0B4BA6142012202EB41011F
S315080001C0001BF6E7F0BC704781F00041AAE780F013
S315080001D00040A7E780EA010210B502F0004340009C
S315080001E022D04A001FD0010E01EB1261C0F356005F
S315080001F0C2F3560240F4000042F40002A0FB0220BB
S3150800020000047F39140400D0401C50EA124001D47F
S315080002104000491EC2B20C0604EBD010401C400830
S31508000220802A02D003E0002010BD20F0010000293A
S3150800023000DA0020184310BD2DE9FE4F804681EAFA
S315080002400300C00F0C46009021F0004123F0004542
S31508000250B8EB0200A94105D24046214690461C4605
S315080002600B46024623F00040104347D0270DC7F33C
S315080002700A00C3F30A510290401A019040286BDA2B
S31508000280C3F3130040F4801B0098924620B1002364
S31508000290D2EB030A63EB0B0B01985946C0F14002F7
S315080002A0504600F00CFA06460D4650465946019A45
S315080002B000F024FA10EB08006141002487EA115285
S315080002C084EAE7731A4340D0009A62B3019A012A76
S315080002D04FEA075215DC001B61EB02014FF00042A2
S315080002E002EA0752CDE90042001C41F58011324668
S315080002F02B4600F05BFA03B0BDE8F08F4046214676
S31508000300F9E7001B61EB0201001C41F58013001898
S315080003105B412018A2F5001747EB030140EAD570A8
S31508000320B6196D4111E06D084FEA360645EAC07503
S315080003304FEA0752001B61EB0201001C41F58011D0
S3150800034049084FEA30000019514132462B4603B09E
S31508000350BDE8F04F00F01BBA0098012240000023C8
S31508000360D0EB020263EBE073009821464FEAE07493
S31508000370B8EB000061EB0401E9E783F000435BE7B3
S3150800038081F0004158E72DE9FE4F81EA030404F0A5
S31508000390004421F0004100944FF0000B23F0004385
S315080003A050EA01045ED052EA03045BD0C3F30A5450
S315080003B0C1F30A552C44A4F2F3340194A0FB025469
S315080003C0C1F3130141F48011C3F3130343F48013FB
S315080003D001FB024400FB034E840A970A44EA81544F
S315080003E047EA8357A4FB076802958D0A05FB07852C
S315080003F04FEA932C04FB0C542705029D4FEA065836
S3150800040047EA1637B5EB08056EEB070C870E920E12
S3150800041047EA811742EA8312A7FB0201B6EB0B01F2
S3150800042064EB00042B0D43EA0C335E1844EB1C50B6
S31508000430DA465146E7FB0201C5F313044FEA0B33CC
S3150800044043EA14534FEA0432019C43EA0603A4F133
S315080004500C040294009CCDE900B400F0A7F903B09F
S31508000460BDE8F08F00200146F9E72DE9F04D81EA55
S31508000470030404F0004B21F0004514464FF0000A2F
S3150800048023F0004150EA050220D054EA01021DD0AB
S31508000490C5F30A570246C5F31303C1F31300C1F3A4
S315080004A00A5640F4801543F48013A7EB0608101B80
S315080004B0D64608F2FD3873EB050002D308F10108A9
S315080004C001E092185B41B8F1000F03DA00200146FB
S315080004D0BDE8F08D00204FF48011064684460EE0F4
S315080004E0171B73EB050705D3121B63EB05030643BE
S315080004F04CEA010C49084FEA300092185B4150EA71
S315080005000107EDD152EA030012D082EA040083EA19
S315080005100501084305D0101BAB4106D20122002372
S3150800052006E000224FF0004302E06FF0010253108C
S315080005301AEB06004CEB085110EB0A0041EB0B01D5
S31508000540BDE8F04D00F023B996230022114600F0CD
S31508000550F0B820F00040C10DC0F3160040F40000CA
S315080005607F2901DA00207047962903DCC1F196013C
S31508000570C840704796398840704700F0004230F00E
S3150800058000400AD0C10D01F56071C0F3160042EAB9
S315080005900151C208400711437047002001467047C1
S315080005A030B5041E71F1000404DB4FF000444042EC
S315080005B064EB0101141E73F1000405DB1C464FF0C1
S315080005C00043524263EB0403994208BF904230BD90
S315080005D001F0004330B421F0004150EA010206D090
S315080005E00A0DA2F56072C1F31301002A02DC30BCC1
S315080005F000207047440F44EAC104C100E01830BC2B
S3150800060000EBC25000F08CB8002801DBC0F10040B6
S31508000610002901DBC1F1004181427047002801DB56
S31508000620C0F10040002901DBC1F100418842704752
S3150800063030B50B46014600202022012409E021FAA4
S3150800064002F59D4205D303FA02F5491B04FA02F5A1
S315080006502844151EA2F10102F1DC30BD2DE9F05F38
S315080006600546002092469B46884606468146402413
S315080006701BE0284641464746224600F02FF85346D7
S315080006805A46C01A914110D311461846224600F020
S3150800069016F82D1A67EB01084F462246012000215D
S315080006A000F00DF817EB00094E41201EA4F10104D5
S315080006B0DFDC484631462A464346BDE8F09F202AF5
S315080006C004DB203A00FA02F1002070479140C2F19B
S315080006D0200320FA03F3194390407047202A04DBCD
S315080006E0203A21FA02F00021704721FA02F3D0409D
S315080006F0C2F120029140084319467047202A06DBBA
S31508000700CB17203A41FA02F043EAE07306E041FAD1
S3150800071002F3D040C2F120029140084319467047BF
S315080007200029A8BF7047401C490008BF20F00100F7
S31508000730704710B4B0FA80FC00FA0CF050EA0104D5
S3150800074004BF10BC704749B1CCF1200421FA04F467
S3150800075011FA0CF118BF012121430843A3EB0C0140
S31508000760CB1D4FEA00614FEA102042BF002010BCA3
S31508000770704700EBC35010440029A4BF10BC704753
S31508000780401C490008BF20F0010010BC704710B596
S31508000790141E73F1000408DA401C41F10001921896
S315080007A05B411A4301D120F0010010BD2DE9F04D3F
S315080007B092469B4611B1B1FA81F202E0B0FA80F294
S315080007C020329046FFF77BFF04460F4640EA0A00B0
S315080007D041EA0B0153465A46084313D0114653EAD9
S315080007E0010019D0C8F140025046FFF777FF0546C9
S315080007F00E46504659464246FFF761FF084305D064
S31508000800012004E020463946BDE8F08D0020054366
S3150800081046EAE0762C4337430A986305E40AA0EBD8
S3150800082008000022FD0A44EA47540A3002D500208F
S315080008300146E9E7010510196941DDE9084500198E
S315080008406941BDE8F04DA2E7C1F30A52C1F31301AD
S3150800085040F2FF3341F480119A4202DA0020014641
S31508000860704740F233439A42A2F2334202DC5242C4
S31508000870FFF734BFFFF723BF064C074D06E0E068D5
S3150800088040F0010394E8070098471034AC42F6D3C9
S31508000890FFF730FCF85600081857000870B58C1892
S315080008A010F8015B15F0070301D110F8013B2A1176
S315080008B006D110F8012B03E010F8016B01F8016B63
S315080008C05B1EF9D12B0705D40023521E0DD401F85F
S315080008D0013BFAE710F8013BCB1A921C03E013F828
S315080008E0015B01F8015B521EF9D5A142D8D300205D
S315080008F070BD0000F8B5064633480088401C3249EA
S31508000900088003F065FB304800880A2190FBF1F265
S3150800091001FB1200002847D101F098FF2B492C480B
S3150800092003F00AFA29480068FFF713FE29490880E8
S3150800093027480068FFF70DFE274908800846028801
S3150800094026A1294801F05EFF2248028827A12648E9
S3150800095001F058FF2848C079009027488379828893
S3150800096026A1214801F04EFF2348807800902248AE
S315080009704378027825A11C4801F044FF2849144809
S315080009800068FFF727FC0546FFF7E3FD0446214606
S31508000990012003F065F80D480068FFF7DAFD044604
S315080009A02146022003F05CF8C82002F0EBFD12484D
S315080009B040781C490978884205D00F48407819497B
S315080009C0087003F096F8F8BD181A0020F0190020F0
S315080009D0EC190020F6190020F419002054656D3A28
S315080009E025640D0A000000000038014048756D3A7C
S315080009F025640D0A000000003C1A00204461793A7B
S31508000A002025642F25642F25640D0A0054696D6519
S31508000A103A2025643A25643A25640D0A0000000048
S31508000A20000020411A1A002010B5012001F00AF82A
S31508000A30002001F007F810BD08B501460020009017
S31508000A40034800900098084400900098008808BD64
S31508000A50006C004008B500220092044A0092009AF1
S31508000A6002440092009A116008BD0000006C004024
S31508000A7000BFFEE77047000010B50A2002F082FDAD
S31508000A801021104800F0F4F9B8B94FF480610E4807
S31508000A9000F000FA0DA1134801F0B4FE0120124936
S31508000AA00870002003F032F84FF47A7002F06AFDFD
S31508000AB04FF48061044800F0EFF9102000F094F834
S31508000AC010BD000000080140000C0140446F696E2B
S31508000AD06720536D61727420436F6E6669670D0AED
S31508000AE00000000000380140F819002010B50A205F
S31508000AF002F048FD20210E4800F0BAF9A0B94FF4DB
S31508000B0080610C4800F0C6F90BA1104801F07AFE86
S31508000B1001200F4908704FF4FA7002F033FD4FF4C4
S31508000B208061044800F0B8F9202000F05DF810BD97
S31508000B3000080140000C014046756E6374696F6ECB
S31508000B402053656C6563740D0A0000000038014087
S31508000B50201A00200EB500F099FA0121084600F087
S31508000B6061FF0421002000F08FF810200190012079
S31508000B708DF80A0000208DF808000C208DF8090071
S31508000B8001A800F037F80521002000F07DF82020A4
S31508000B90019001208DF80A0000208DF808000C202D
S31508000BA08DF8090001A800F025F80A208DF8000044
S31508000BB002208DF8010003208DF8020001208DF82F
S31508000BC00300684600F09AFA17208DF80000022004
S31508000BD08DF8010001208DF802008DF803006846A3
S31508000BE000F08CFA0EBD000001490860704700004D
S31508000BF014040140002123498279002A3AD00A4682
S31508000C00126803689A430B461A600A1D126803683D
S31508000C109A430B1D1A60027911440A6803681A433D
S31508000C200A60184A0832126803689A43154B083353
S31508000C301A601A1D126803689A43124B0C331A601D
S31508000C404279102A0ED11A1F126803681A430D4BEF
S31508000C5008331A601A1D126803681A43094B0C33C5
S31508000C601A600DE00749427911440A6803681A4375
S31508000C700A6005E0027911440A6803689A430A6023
S31508000C80704700000004014030B500228B071C0F96
S31508000C900F2303FA04F20B4B8C1053F824309343BA
S31508000CA0084C8D1044F8253023468C1053F8243010
S31508000CB08C07240F00FA04F42343024C8D1044F8E1
S31508000CC0253030BD080001402DE9F04102460025D7
S31508000CD00026002000230024002791F803C00CF00A
S31508000CE00F0591F803C00CF0100CBCF1000F03D0EF
S31508000CF091F802C04CEA050591F800C0BCF1000F56
S31508000D0031D0146800202BE04FF0010C0CFA00F3E8
S31508000D10B1F800C00CEA03069E4220D183004FF0CA
S31508000D200F0C0CFA03F7BC4305FA03FC4CEA04045F
S31508000D3091F803C0BCF1280F06D14FF0010C0CFA4C
S31508000D4000FCC2F814C00AE091F803C0BCF1480FD1
S31508000D5005D14FF0010C0CFA00FCC2F810C0401C7B
S31508000D600828D1D31460B1F800C0BCF1FF0F34DDF8
S31508000D70546800202EE000F1080C4FF0010808FA2C
S31508000D800CF3B1F800C00CEA03069E4221D1830099
S31508000D904FF00F0C0CFA03F7BC4305FA03FC4CEAB8
S31508000DA0040491F803C0BCF1280F05D100F1080C22
S31508000DB008FA0CF8C2F8148091F803C0BCF1480F81
S31508000DC007D100F1080C4FF0010808FA0CF8C2F830
S31508000DD01080401C0828CED35460BDE8F08100007E
S31508000DE0F0B50A46002300240021002500F000463D
S31508000DF0B6F1004F02D11D4EF16901E01B4E716834
S31508000E00C0F3034583B200F44016B6F5401F08D177
S31508000E1021F07061154E766826F07066134F7E6075
S31508000E2012E000F48016B6F5801F06D1032606FAEE
S31508000E3005F4A14341F0706106E0460D360103FA58
S31508000E4006F6B14341F0706122B1460D360103FA48
S31508000E5006F6314300F00046B6F1004F02D1034EC4
S31508000E60F16101E0014E7160F0BD00000000014033
S31508000E700246002093680B400BB1012000E00020D9
S31508000E80704702460020D3680B400BB1012000E0F2
S31508000E9000207047416170470161704710B50B48E3
S31508000EA0007858B102F02CFE042807D10020074923
S31508000EB0087007480078401C0549087004480078FF
S31508000EC0022802DD01200249087010BD201A002000
S31508000ED0F819002000BFFEE710B500200A4908608F
S31508000EE001F0ECF800200949C1F89C01022002F043
S31508000EF065FB012004490860022002F05FFB002020
S31508000F000249C1F8980110BD98812142008021420A
S31508000F1010B500200A49086001F0D0F801200949F7
S31508000F20C1F89C01022002F049FB0120044908602F
S31508000F30022002F043FB00200249C1F8980110BDC7
S31508000F40988121420080214270B50546002401F0AF
S31508000F50A3F8002616E000200F490860022002F0D8
S31508000F602DFB01200D49C1F898016006040E0A48B8
S31508000F707C38006808B1601CC4B2022002F01EFB6F
S31508000F80701CC6B2082EE6DB15B9FFF7C1FF01E0F3
S31508000F90FFF7A2FF204670BD9881214200802142BA
S31508000FA070B5044601F08AF800200F49086000254C
S31508000FB017E0E0090C49091D08606006040E0220C6
S31508000FC002F0FCFA01200949C1F89801022002F052
S31508000FD0F5FA002004490860022002F0EFFA681CBE
S31508000FE0C5B2082DE5DB70BD9881214200802142FB
S31508000FF010B520210748FFF74FFF10210548FFF7D6
S315080010004BFF10210348FFF745FF20210148FFF752
S3150800101041FF10BD000C014010B520210548FFF71F
S315080010203BFF10210348FFF735FF10210148FFF762
S3150800103033FF10BD000C014010B520210348FFF70F
S315080010402BFF20210148FFF725FF10BD000C0140AA
S315080010500146CA1701EB92729210A1EB820292B96D
S31508001060642091FBF0F200FB121050B94FF4C870DF
S3150800107091FBF0F200FB121008B90120704700201E
S31508001080FCE70120FAE70020F8E7000010B5012187
S31508001090042000F0C7FC0121084600F0C3FC01212A
S315080010A00648FFF79DFE3020054908802820C870AD
S315080010B0032088700348FFF707FE10BD00023000C2
S315080010C0221A00200008014010B50121082000F06E
S315080010D0A9FC10200549C8704FF440600880032019
S315080010E088700348FFF7F0FD10BD0000221A0020A3
S315080010F0000C014000BFFEE77047000070B50021F4
S3150800110000230F22C47804B3154C246804F4E06461
S31508001110C4F5E064210AC1F10403CA40447804FA1C
S3150800112003F184781440214309010E4C0678A15531
S31508001130047804F01F050124AC4005786D11AD0054
S3150800114005F1E025C5F8004109E0047804F01F051B
S315080011500124AC40044D0678761145F8264070BD4A
S315080011600CED00E000E400E080E100E00249014304
S31508001170024A1160704700000000FA050CED00E015
S3150800118070B5002418E004F1B000002100F031FA2F
S315080011900021084600F02DFA0021102000F029FA57
S315080011A0002505E00121002000F023FA681CC5B2DD
S315080011B0802DF7DB601CC4B2082CE4DB70BD000090
S315080011C010B50121082000F02DFC302006490880C2
S315080011D01020C870032088700448FFF775FD302179
S315080011E00248FFF759FE10BD221A0020000C0140E4
S315080011F010B5FFF7E5FF4FF4487002F0C3F9002178
S31508001200AE2000F0F6F90021084600F0F2F90021B8
S31508001210102000F0EEF90021402000F0EAF9002144
S31508001220B02000F0E6F90021812000F0E2F9002163
S31508001230FF2000F0DEF90021A12000F0DAF90021F4
S31508001240A62000F0D6F90021A82000F0D2F9002146
S315080012503F2000F0CEF90021C82000F0CAF900218D
S31508001260D32000F0C6F90021084600F0C2F9002193
S31508001270D52000F0BEF90021802000F0BAF900213F
S31508001280D82000F0B6F90021052000F0B2F90021B7
S31508001290D92000F0AEF90021F12000F0AAF90021CA
S315080012A0DA2000F0A6F90021122000F0A2F90021A8
S315080012B0DB2000F09EF90021302000F09AF9002189
S315080012C08D2000F096F90021142000F092F90021F3
S315080012D0AF2000F08EF910BD70B504460D4605F135
S315080012E0B000002100F085F9102141EA1410002110
S315080012F000F07FF904F00F00002100F07AF970BDC4
S315080013002DE9F04180460E461546002731464046EF
S31508001310FFF7E2FF00240AE0124A02EB8511085D96
S31508001320012100F066F9781CC7B2601CC4B2102C03
S31508001330F2DB701CC1B24046FFF7CEFF00240CE07A
S315080013406900491C074A02EB4111085D012100F0BA
S3150800135050F9781CC7B2601CC4B2102CF0DBBDE88B
S31508001360F0810000140000202DE9F04707460E46DC
S3150800137090469946002500247F2F02DD0027B01CE1
S31508001380C6B2A8F12000C5B2B9F10C0F06D0B9F162
S31508001390100F17D0B9F1180F7AD138E03146384610
S315080013A0FFF79AFF00240AE005EB45013B4A02EBEA
S315080013B04101085D012100F01CF9601CC4B2062C2D
S315080013C0F2DB67E031463846FFF786FF002408E07F
S315080013D004EB0511324A505C012100F00AF9601C41
S315080013E0C4B2082CF4DB701CC1B23846FFF774FF90
S315080013F0002409E004EB05110831294A505C012153
S3150800140000F0F7F8601CC4B2082CF3DB42E0314662
S315080014103846FFF761FF00240AE005EBC501214ABB
S3150800142002EB8101085D012100F0E3F8601CC4B2FB
S315080014300C2CF2DB701CC1B23846FFF74DFF0024B6
S315080014400CE005EBC501174A02EB810204F10C0119
S31508001450505C012100F0CDF8601CC4B20C2CF0DB06
S31508001460B01CC1B23846FFF737FF00240CE005EB85
S31508001470C5010C4A02EB810204F11801505C0121F6
S3150800148000F0B7F8601CC4B20C2CF0DB02E0FFE7F2
S31508001490BDE8F08700BF00BFFAE70000504100082A
S315080014A078430008684900082DE9FF5F074691461A
S315080014B01E460E9D4FF0000A002435E0301B401EE4
S315080014C0C1B20A2002F0A0FBB9FBF0F00A21B0FB7A
S315080014D0F1F201FB1208BAF1000F14D1701EA042F6
S315080014E011DDB8F1000F0CD1AB4605EBDB714910E5
S315080014F001FB0471C8B22B4620220199FFF734FF7D
S3150800150010E04FF0010AAB4605EBDB71491001FB11
S315080015100471C8B208F13001CAB22B460199FFF727
S3150800152023FF00BF601CC4B2B442C7DBBDE8FF9FFF
S315080015302DE9FF5F074691461E460E9D4FF0000AAD
S31508001540002435E0301B401EC1B20A2002F05CFBC5
S31508001550B9FBF0F00A21B0FBF1F201FB1208BAF16F
S31508001560000F14D1701EA04211DDB8F1000F0CD186
S31508001570AB4605EBDB71491001FB0471C8B22B467B
S3150800158030220199FFF7F0FE10E04FF0010AAB4652
S3150800159005EBDB71491001FB0471C8B208F1300193
S315080015A0CAB22B460199FFF7DFFE00BF601CC4B222
S315080015B0B442C7DBBDE8FF9F2DE9F04104460F465C
S315080015C01546984600260FE0AA5D4346394620464A
S315080015D0FFF7CAFE04F10800C4B2782C02DD002425
S315080015E0B81CC7B2701CC6B2A85D0028ECD1BDE80D
S315080015F0F08170B504460D461DB1E0B201F048FA17
S3150800160002E0E0B201F02EFA70BD0000F8B5FFF76F
S31508001610B7FD002211461420FFF772FE01220021B1
S315080016202620FFF76DFE022200213820FFF768FE0C
S31508001630032200214A20FFF763FE042200215C20D2
S31508001640FFF75EFE002202211046FFF759FE02222E
S3150800165011461220FFF754FE102363A2022124200C
S31508001660FFF7AAFF052202215A20FFF749FE0122A9
S3150800167004210020FFF744FE022204211220FFF76E
S315080016803FFE102358A204212420FFF795FF1023BC
S3150800169056A204215C20FFF78FFF5549554802F0F2
S315080016A04BFB9EE04FF47A70FFF724F9FFF7F6FB41
S315080016B051480078012800D094E04D480068FEF7AC
S315080016C048FF4E4908804B480068FEF742FF4C49E0
S315080016D0088048480068FEF73CFF044610200223AD
S315080016E02246194600902E20FFF7DEFE102345A25B
S315080016F002214020FFF760FF41480088FEF724FFDB
S3150800170007463C4801683846FEF761FD06463E49ED
S31508001710FEF760FD0546FEF71CFF0446102002236F
S315080017202246194600904620FFF702FF3048006817
S31508001730FEF70FFF044610200223224604210090DC
S315080017402E20FFF7B1FE10232EA204214020FFF71A
S3150800175033FF2A480088FEF7F7FE07462448016843
S315080017603846FEF734FD06462749FEF733FD05469B
S31508001770FEF7EFFE044610200223224604210090BD
S315080017804620FFF7D5FE02F0BBF9042826D1102023
S3150800179000901E480278022306211620FFF784FED1
S315080017A0102311A206212620FFF706FF102000901D
S315080017B016484278022306213020FFF7B9FE102387
S315080017C009A206214220FFF7F7FE102000900F48D5
S315080017D08278022306214B20FFF7AAFE642001F037
S315080017E0D1FE5FE700BFF8BD3A0000002500000003
S315080017F0F0190020EC190020F8190020F61900202D
S31508001800F41900202E0000000000C8423C1A0020EF
S3150800181008B5FFF7B5FC152200212020FFF770FD5B
S31508001820162200213020FFF76BFD062200214020FA
S31508001830FFF766FD072200215020FFF761FD1322FE
S3150800184006215020FFF75CFD142206216020FFF7D1
S3150800185057FD102348A206210020FFF7ADFE1823E6
S3150800186048A202211E20FFF7A7FE182345A202213F
S315080018704E20FFF7A1FE02F03CF979E04FF416700E
S31508001880FFF738F8FFF70AFB3F480078022800D030
S315080018906FE0102000903D4882880423062100202E
S315080018A0FFF702FE102000903848827902230621AD
S315080018B02820FFF7F9FD102000903448C27902234A
S315080018C006214020FFF7F0FD182000902F480278E7
S315080018D0022319461846FFF7E7FD182000902B4803
S315080018E04278022319463020FFF722FE182000907E
S315080018F026488278022319466020FFF719FE234BF3
S31508001900DA799979988800F011FA07282FD2DFE852
S3150800191000F0040A10161C22280015220621702041
S31508001920FFF7EEFC23E00C2206217020FFF7E8FC07
S315080019301DE00D2206217020FFF7E2FC17E00E22BB
S3150800194006217020FFF7DCFC11E00F22062170202B
S31508001950FFF7D6FC0BE0102206217020FFF7D0FC1B
S3150800196005E0112206217020FFF7CAFC00BF00BF60
S3150800197084E700BF08BD0000202020202F20202F4C
S31508001980000000003A000000F81900203C1A002068
S3150800199010B5FFF7F5FB10230FA202214120FFF730
S315080019A00BFE10230EA204214120FFF705FE10238B
S315080019B00DA206214120FFF7FFFD0AE04FF448700B
S315080019C0FEF798FFFFF76AFA09480078032800D05F
S315080019D000E0F3E700BF10BD54656D703A000000E3
S315080019E048756D693A00000057696E653A0000004F
S315080019F0F8190020014908627047000000000E42ED
S31508001A007047000029B1064AD2690243044BDA61DD
S31508001A1004E0034AD2698243014BDA617047000049
S31508001A200010024029B1064A92690243044B9A61A2
S31508001A3004E0034A92698243014B9A6170470000A9
S31508001A400010024001490860704700004004424205
S31508001A5030B500210022002400232D4D6D6805F0C5
S31508001A600C0121B1042905D0082923D105E0294D07
S31508001A70056022E0274D05601FE0254D6D6805F4D9
S31508001A807012234D6D6805F48034022505EB9242E9
S31508001A901CB9214D554305600BE01D4D6D6805F4D5
S31508001AA000351DB11C4D5543056002E0194D5543DF
S31508001AB0056002E0174D056000BF00BF144D6D6854
S31508001AC005F0F0010909154D6B5C0568DD404560B8
S31508001AD00F4D6D6805F4E061090A104D6B5C4568A9
S31508001AE0DD4085600A4D6D6805F46051C90A0B4DE5
S31508001AF06B5C4568DD40C560054D6D6805F4404181
S31508001B00890B074D6B5CC568B5FBF3F5056130BD00
S31508001B100010024000127A0000093D000000002073
S31508001B201000002010B501460022002300204A11AB
S31508001B30012A02D1094C236806E0022A02D1074C81
S31508001B40236A01E0054C636A01F01F0201249440F0
S31508001B501C400CB1012000E0002010BD001002401E
S31508001B6000210B4A11700A4A203A82F820100128EF
S31508001B7002D0042808D103E00121054A117004E0C7
S31508001B800521034A117000E000BF00BF704700003E
S31508001B902010024001490860704700008004424254
S31508001BA001490860704700003C0442420249096A3C
S31508001BB00143014A11627047001002400249098830
S31508001BC08143014A11807047042800400348008871
S31508001BD040F01000014908807047000004280040C2
S31508001BE0034800884FF6EF7108400149088070479E
S31508001BF00428004070B500260024002500F07AF875
S31508001C0006463848B6FBF0F437480088A0423CD070
S31508001C1035490C8040F2B27510E02846FFF718FAED
S31508001C2040B1B4F5B77F02D3A4F5B77404E0681CD5
S31508001C3085B206E0A4F26D14681C85B2B4F5B67FC9
S31508001C40EBD800BF29488580002516E027498888F3
S31508001C50FFF7FEF930B1012D04D11D2C01D31D3C2F
S31508001C6009E00CE02248405DA04203D82048405DC8
S31508001C70241A00E003E0681C85B21C2CE6D200BFDB
S31508001C80681C1A498871601CC8711648B6FBF0F1C1
S31508001C9000FB11644FF46160B4FBF0F0134908705F
S31508001CA04FF46160B4FBF0F100FB11403C21B0FB3E
S31508001CB0F1F00E4948704FF46160B4FBF0F100FB97
S31508001CC011403C21B0FBF1F201FB12000749887074
S31508001CD00B46DA799979988800F028F8034908724A
S31508001CE0002070BD80510100281A00203C1A0020EF
S31508001CF0D0560008002103480188001F008841EAE1
S31508001D00004070471C28004001460020064A1288F9
S31508001D100A40D0B2044A121F12880A4012B108B10A
S31508001D20012000E00020704704280040F0B5034673
S31508001D300C461546642093FBF0F0C6B2642093FB6C
S31508001D40F0F700FB1730C1B2132E02DD01F1640073
S31508001D50C1B20846CF1701EB977701EBA707BAB2CE
S31508001D60072092FBF0F700FB172082B25719601E76
S31508001D70DFF82CC01CF80000384482B2CF1701EBFC
S31508001D809777BF10A1EB87071FB9032C01DA501EFE
S31508001D9082B2072092FBF0F700FB1720C0B2F0BD15
S31508001DA0C45600081FB50120FFF7AEFF08B1FFF7BC
S31508001DB021FF0220FFF7A8FFB8B10220FFF7FEFEB9
S31508001DC0FFF718FF0C4880780B4949780A4A1278B9
S31508001DD0094BDB79CDE90032CDE902100648837953
S31508001DE0828806A10D4800F00DFD0520FFF7E6FEE6
S31508001DF000F036F91FBD00003C1A0020416C6172E4
S31508001E006D2054696D653A25642D25642D25642059
S31508001E1025643A25643A25640D0A00000038014015
S31508001E2029B1064A12880243044B1A8004E0034A81
S31508001E3012888243014B1A80704700000028004030
S31508001E401CB5002401214FF0C050FFF7DBFD01202F
S31508001E50FFF7D0FD0420FEF7EFFD45F25101884259
S31508001E604BD0FEF7E1FD0020FFF77AFE0020FFF7D2
S31508001E7091FE04E0601CC4B20A2001F083FB312005
S31508001E80FFF750FE08B9FA2CF4DBFA2C05DB22A181
S31508001E90254800F0B7FC01201CBD4FF44070FFF741
S31508001EA085FE0120FFF77CFE20A11F4800F0AAFC52
S31508001EB000F0D6F800F0DEF801210846FFF7B0FF7B
S31508001EC000F0CEF8FFF782FE4FF2204000F0B8F897
S31508001ED000F0C6F828202A2111230522CDE9001092
S31508001EE0032140F2E57000F039F8FFF779FE45F274
S31508001EF050010420FEF7AEFD07E000F0BBF8012113
S31508001F000846FFF78DFF00F0ABF800F017F8FFF76B
S31508001F1071FE0020C0E70000204853455F384D5F3A
S31508001F204572726F720D0A00003801402048534509
S31508001F305F384D5F446F6E650D0A000008B50320D3
S31508001F408DF8000000208DF801008DF802000120B0
S31508001F508DF803006846FFF7D1F808BD2DE9F05F54
S31508001F6006460F4690469946DDE90AAB002440F23C
S31508001F70B270864203DB40F63300864202DD01205A
S31508001F80BDE8F09F40F2B2750AE02846FFF760F810
S31508001F9010B12048044401E01F480444681C85B277
S31508001FA0B542F2DB781EC7B2002510E01B48405D3B
S31508001FB040F2A321484304EBC0143046FFF748F823
S31508001FC018B1012D01D116480444681C85B2BD42DA
S31508001FD0ECDBA8F1010040F2A321484304EBC0144E
S31508001FE0C9EB4910C0EB092004EB0014CAEB0A1030
S31508001FF004EB80045C4401214FF0C050FFF702FD5A
S315080020000120FFF7F7FC204600F00CF800F028F84E
S315080020100020B5E70085E2018033E101D0560008CB
S315080020208051010000B50246FFF7D0FD100C0349A8
S315080020300880091D0A80FFF7D3FD00BD1828004057
S3150800204000B50246FFF7C2FDC2F303400349088004
S31508002050091D0A80FFF7C4FD00BD000008280040DE
S3150800206000BF0348008800F020000028F9D0704718
S3150800207004280040074800884FF6F77108400549CC
S31508002080088000BF0348008800F008000028F9D03F
S31508002090704700000428004008B58020ADF800000D
S315080020A004208DF8030003208DF8020069460248D3
S315080020B0FEF70AFE08BD0000000C014008B58020A6
S315080020C0ADF8000010208DF8030003208DF80200FB
S315080020D069460248FEF7F8FD08BD0000000C0140FD
S315080020E010B501210820FFF79DFCC020064908808D
S315080020F01020C870032088700448FEF7E5FDC0214B
S315080021000248FEF7C9FE10BD221A0020000C014045
S3150800211010B5FFF7D3FF0120094908600949C1F83E
S315080021209801042001F04AFA0020054908600420B5
S3150800213001F044FA00200349C1F8980110BD0000D7
S315080021409C8121420080214210B5FFF7B7FF00208D
S31508002150084908600849C1F89C01042001F02EFAD4
S315080021600120044908600449C1F89C01042001F0D3
S3150800217025FA10BD988121420080214210B500241D
S31508002180FFF78AFF01200E49086001F017FA0120BF
S315080021900C49C1F8980101F011FA07E0601CC4B2B5
S315080021A0FA2C03DDFFF7D0FF012010BD0448803864
S315080021B000680028F2D10249091F086000BFF4E749
S315080021C09C8121420080214210B5FFF789FF4FF418
S315080021D0967001F0D7F9FFF79BFF8820FEF7E0FE1F
S315080021E0FFF7CCFF2320FEF7DBFEFFF7C7FF3420FF
S315080021F0FEF7D6FEFFF7C2FFFFF7A6FF962001F00F
S31508002200C1F910BD704710B500F002F810BD000006
S315080022100CB50020019000903348006840F48030E7
S315080022203149086000BF3048006800F4003000906B
S315080022300198401C0190009818B90198B0F5A06F54
S31508002240F1D12948006800F4003010B1012000904F
S3150800225001E0002000900098012843D12348006837
S3150800226040F01000214908600846006820F0030085
S3150800227008600846006840F0020008601A4840688E
S31508002280194948600846406848600846406840F46E
S31508002290806048600846406820F47C10486008461C
S315080022A0406840F4E81048600846006840F08070CE
S315080022B0086000BF0C48006800F000700028F9D0DC
S315080022C00948406820F00300074948600846406806
S315080022D040F00200486000BF0348406800F00C0068
S315080022E00828F9D10CBD0000001002400020024069
S315080022F010B5FEF745FF082203212020FFF700F856
S31508002300092203213020FEF7FBFF0A220321402081
S31508002310FEF7F6FF0B2203215020FEF7F1FF1023EC
S315080023200EA205213020FFF747F94FF4FA7001F0A5
S3150800233029F9102309A205214020FFF73DF94FF49A
S31508002340FA7001F01FF9102304A205214F20FFF7A8
S3150800235033F94FF4FA7001F015F910BD2E0000009C
S315080023607047000010B51348006840F00100114995
S31508002370086008464068104908400E494860084603
S3150800238000680E4908400B4908600846006820F4B2
S31508002390802008600846406820F4FE0048604FF434
S315080023A01F008860FFF72FFF4FF0006004490860A0
S315080023B010BD0000001002400000FFF8FFFFF6FE07
S315080023C008ED00E010B501210E4800F024F8C0B170
S315080023D00D480088401C00B20B4908800846B0F931
S315080023E00000B0F57A7F08DB08480088401C00B278
S315080023F0064908800020044908800121014800F0A8
S3150800240007F810BD000400401C1A00201E1A002000
S31508002410CA430282704730B50246002000230024D2
S31508002420158A05EA0103958905EA010413B10CB179
S31508002430012000E0002030BD10B5002440F22551EF
S31508002440124800F069F800B3104800F021F9C4B248
S3150800245021460E4800F021F900BF80210B4800F004
S315080024604EF80028F9D0312C04D14FF40061084801
S31508002470FEF710FD412C04D14FF400610448FEF725
S315080024800BFD2021014800F025F810BD0038014059
S31508002490000C014010B5002440F22551054800F013
S315080024A03BF830B1034800F0F3F8C4B2204601F017
S315080024B00BFD10BD0044004000BF0549098801F026
S315080024C080018029F9D10249091D0880704700005A
S315080024D00044004001F40072B2F5007F00D100BF4D
S315080024E0CA430280704721B1828942F40052828130
S315080024F004E082894DF6FF731A40828170470246CE
S315080025000020B1F5007F00D100BF13880B400BB146
S31508002510012000E00020704770B502460024002321
S315080025200025002040F66A16B14200D100BFC1F36B
S31508002530421501F01F03012606FA03F3012D02D105
S315080025409689334006E0022D02D1168A334001E00F
S31508002550968A33400C12012606FA04F4168834408B
S3150800256013B10CB1012000E0002070BDF0B50346A0
S31508002570002400260025002040F66A17B94200D13B
S3150800258000BF1846C1F3421401F01F06012707FAD7
S3150800259006F5012C01D10C3004E0022C01D11030D3
S315080025A000E014301AB107682F43076002E0076895
S315080025B0AF430760F0BD00002DE9F04786B0054639
S315080025C00E460024A24600BFA1460027B08900B1E6
S315080025D000BF2F462C8A4CF6FF700440F08804434F
S315080025E02C82AC894EF6F3100440B0883189084332
S315080025F0718908430443AC81AC8A4FF6FF40044016
S31508002600B0890443AC8201A8FFF722FA1F48874223
S3150800261002D1DDF810A001E0DDF80CA0A88900F4CD
S31508002620004040B10AEBCA0000EB0A1031684900C5
S31508002630B0FBF1F807E00AEBCA0000EB0A103168B4
S315080026408900B0FBF1F86420B8FBF0F0040120091A
S31508002650642101FB1089A88900F4004040B13220AA
S3150800266000EBC900B0FBF1F000F00700044308E0F6
S31508002670322000EB09106421B0FBF1F000F00F00E6
S3150800268004432C8106B0BDE8F087000000380140FD
S3150800269001468888C0F308007047C1F308028280A3
S315080026A0704700BFFEE7000010B586B0044601215A
S315080026B00420FFF7B7F901218803FFF7B3F91820BB
S315080026C08DF817004FF40070ADF8140003208DF84C
S315080026D0160005A91E48FEF7F7FA04208DF817001C
S315080026E00002ADF8140003208DF8160005A9184855
S315080026F0FEF7EAFA01940020ADF810000C20ADF8B8
S315080027000E000020ADF80C00ADF80A00ADF8080080
S3150800271001A91048FFF750FF01210E48FFF7E3FE15
S31508002720012240F225510B48FFF720FF25208DF89E
S31508002730000001208DF8030000208DF8010002201A
S315080027408DF802006846FEF7D9FC06B010BD0000F9
S31508002750000801400038014010B586B00446012142
S315080027600420FFF75FF901214804FFF74BF9182009
S315080027708DF817000420ADF8140003208DF8160014
S3150800278005A91E48FEF7A0FA04208DF817000820B0
S31508002790ADF8140003208DF8160005A91748FEF7B2
S315080027A093FA01940020ADF810000C20ADF80E0045
S315080027B00020ADF80C00ADF80A00ADF8080001A934
S315080027C00F48FFF7F9FE01210D48FFF78CFE01229D
S315080027D040F225510A48FFF7C9FE26208DF8000069
S315080027E001208DF8030000208DF801008DF8020005
S315080027F06846FEF783FC06B010BD000000080140DD
S31508002800004400400FB430B5CBB0054601AC50A823
S3150800281000904FF4947101A8009B4F9A00F04EF96E
S31508002820002000900BE014F8011B2846FFF735FF3F
S3150800283000BF40212846FFF762FE0028F9D020781D
S315080028400028F0D14BB030BC5DF814FB10B501F090
S3150800285057F905287AD2DFE800F0033132526F00C3
S315080028603CA14248FFF7CEFF4148007801280BD12A
S31508002870102340A206210020FEF79EFE0C2342A24A
S3150800288007210F20FEF798FE00204349087010E044
S315080028904FF400614148FEF7F4FAC0F101004049DF
S315080028A00860642000F06EFE3B480078401C3A49F8
S315080028B00870394800780A28EADB48E047E039A179
S315080028C02A48FFF79FFF10233BA206210020FEF7A8
S315080028D073FE0C233DA207210F20FEF76DFE102381
S315080028E035A206210020FEF767FE4FF400612B484B
S315080028F0FEF7D2FA4FF4C87000F044FE27E037A17D
S315080029001A48FFF77FFF10232BA206210020FEF7A7
S3150800291053FE0C2337A207212320FEF74DFE102372
S3150800292025A206210020FEF747FE4FF400611B484A
S31508002930FEF7B0FA0BE009E04FF400611748FEF71E
S31508002940A9FA2EA10948FFF75DFF00BF00BF00BF27
S3150800295010BD000053746174653A20536D6172743A
S3150800296020436F6E6669670D0A0000000038014053
S31508002970F819002020202020202020202020202098
S315080029802020202000000000536D61727420436FE0
S315080029906E666967000000003A1A0020000C0140C4
S315080029A0AC812142436F6E6E656374696E6720520F
S315080029B06F7574650D0A0000202020202020202035
S315080029C0202020202020202020000000436F6E6E4B
S315080029D0656374696E672E2E2E000000436F6E6E57
S315080029E0656374696E6720526F757465204F4B2155
S315080029F00D0A00004F6E6C696E650000436F6E6EBF
S31508002A00656374696E6720436C6F75640D0A000010
S31508002A102DE9F04105462C4620211148FEF73AFAE1
S31508002A20002619E0274607F08007802F04D11021D9
S31508002A300B48FEF731FA03E010210948FEF72AFA97
S31508002A406006040E20210648FEF726FA20210448CF
S31508002A50FEF720FA701CC6B2082EE3DBBDE8F0814B
S31508002A60000C014010B50446FEF7C2FA7820FFF7BD
S31508002A70CFFFFEF7E1FA0020FFF7CAFFFEF7DCFA00
S31508002A802046FFF7C5FFFEF7D7FAFEF7C5FA10BDD1
S31508002A9010B50446FEF7ACFA7820FFF7B9FFFEF743
S31508002AA0CBFA4020FFF7B4FFFEF7C6FA2046FFF739
S31508002AB0AFFFFEF7C1FAFEF7AFFA10BD7CB5491EA7
S31508002AC01C461546CDE90001044B6A4621462846B0
S31508002AD000F0C8F8009A002111707CBD93330008F5
S31508002AE002E008C8121F08C1002AFAD170477047C9
S31508002AF0002001E001C1121F002AFBD17047000027
S31508002B002DE9FF5FDDE90220010DDDF838B002434B
S31508002B1018D044F61050A1F2FF3141430D140F9816
S31508002B20012820D0A5EB0B00401C5FEA000A4FF0F5
S31508002B300004474EDFF81C91A046504616D5CAF148
S31508002B40000728E00F98012443A2012808D0002195
S31508002B5000980F9BC0E90021C0E90243BDE8FF9F2A
S31508002B606FEA0B01F4E7CBF10000DEE7074612E057
S31508002B70F80707D02246334640464946FDF703FC88
S31508002B80804689462246334610461946FDF7FBFB22
S31508002B9004460E467F10002FEAD1DDE90201BAF19C
S31508002BA0000F42464B4602DAFDF7EDFB01E0FDF762
S31508002BB05CFC04460E460022284BFDF7F1FC03D8C0
S31508002BC04FF0FF30014607E00022254B20463146EC
S31508002BD0FDF732FBFDF738FE102409E0002C0ADB6E
S31508002BE00A220023FDF73AFD019B30321A55641E6E
S31508002BF050EA0102F2D1641C019AC4F1110314448B
S31508002C000F9A012A03D0012208430DD10AE008438E
S31508002C1004D000204FF0110B0F9080E7A3EB0B05B3
S31508002C206D1E0DE05B4504DD4FF0000205F1010560
S31508002C3004E003DA4FF00002A5F10105002AECD002
S31508002C4000980F99C0E90231C0E9004586E70000FF
S31508002C50000024400000F03F300000000000F04370
S31508002C600000E03F2DE9FF4F95B09B468946064692
S31508002C7000250FE2252877D100242746F84A0121A6
S31508002C80059400E0044316F8013F203B01FA03F0DF
S31508002C901042F7D130782A2811D06FF02F033078F8
S31508002CA0A0F13002092A16D8059A44F0020402EB6C
S31508002CB0820203EB42021044761C0590EFE759F8AE
S31508002CC0042B0592002A03DA504244F40054059076
S31508002CD044F00204761C30782E2816D116F8010F17
S31508002CE044F004042A280DD06FF02F023078A0F1A2
S31508002CF03003092B09D807EB870302EB4303C718F0
S31508002D00761CF3E759F8047B761C30786C280FD0CC
S31508002D1006DC4C2817D068280DD06A2814D104E0A0
S31508002D20742810D07A280FD10DE044F400140AE074
S31508002D3044F4801401E044F440147278824202D1CB
S31508002D4004F58014761C761C307866280BD013DCC4
S31508002D50582877D009DC002875D04528F6D04628AB
S31508002D60F4D047281AD19DE118E0632835D06428A5
S31508002D7079D0652812D195E1702873D008DC6728C8
S31508002D80F1D069286FD06E280DD06F2806D1B5E02E
S31508002D9073282CD0752875D0782874D05A46179978
S31508002DA090476D1C75E1C4F30250022809D0032828
S31508002DB00DD0D9F8001004280DD00D6009F10409CA
S31508002DC067E1D9F80010EA17C1E90052F6E7D9F821
S31508002DD000100D80F2E70D70F0E719F8041B8DF866
S31508002DE0001000208DF80100EA46012003E059F89A
S31508002DF004AB4FF0FF3061074FF0000102D40DE03D
S31508002E0008F101018846B9420FDA8045F8DB1AF85D
S31508002E1008100029F4D108E008F10101884681422A
S31508002E20FADB1AF808100029F6D105985B46A0EBDC
S31508002E30080721463846179A00F094FA284400EB0A
S31508002E40080507E04DE029E10DE01AF8010B5A469E
S31508002E5017999047B8F10108F7D25B4621463846DC
S31508002E60179A13E142E00A220092C4F302524FF085
S31508002E70000A022A08D059F804CB032A4FEAEC7153
S31508002E800AD00DE029E02AE009F1070121F007023E
S31508002E90F2E802C1914609E00FFA8CFC4FEAEC71A0
S31508002EA0042A03D14FFA8CFC4FEAEC71002907DAA1
S31508002EB00A460021DCF1000C61EB02012D2202E03A
S31508002EC0220504D52B228DF80420012203E0E2070F
S31508002ED001D02022F7E7904659E00A2102E01022A5
S31508002EE00DE010214FF0000A00910BE010224FF080
S31508002EF0000A44F004040827009203E008224FF071
S31508002F00000A0092C4F30252022A05D059F804CBEB
S31508002F100021032A08D009E009F1070121F0070278
S31508002F20F2E802C1914605E01FFA8CFC042A01D199
S31508002F300CF0FF0C4FF00008220728D5702806D0A1
S31508002F40009B83F0100353EA0A0305D00EE04022E3
S31508002F508DF80420012208E05CEA010206D030223E
S31508002F608DF804208DF8050002229046009B83F018
S31508002F70080353EA0A030AD15CEA010201D162078F
S31508002F8005D530228DF804204FF001087F1E5828F9
S31508002F9004D034A003900EA802900DE036A0F9E7FD
S31508002FA053466046009AFDF759FB84460398825CAF
S31508002FB00298401E029002705CEA0100F0D1029865
S31508002FC006A9081A00F1200A600702D524F48034FD
S31508002FD000E00127574502DDA7EB0A0000E00020C4
S31508002FE000EB0A01009005984144401A0590E00359
S31508002FF006D45B462146179A059800F0B3F90544AE
S31508003000002706E001A85A46C05D179990476D1C2F
S315080030107F1C4745F6DBE0030CD55B462146179A2D
S31508003020059800F09FF9054404E030205A461799A0
S3150800303090476D1C0099481E00900029F5DC08E0B1
S31508003040029802995A460078491C029117999047A6
S315080030506D1CBAF10001AAF1010AF1DC65E1000074
S315080030600928010030313233343536373839616250
S315080030706364656600000000303132333435363714
S3150800308038394142434445460000000000F058F9EB
S315080030900544761C307800287FF4ECAD19B0284634
S315080030A0BDE8F08F620700D4062709F1070222F06F
S315080030B0070CFCE80223E14603F000485FEA080C27
S315080030C002D00FF2702C0DE05FEA045C02D50FF215
S315080030D0682C07E05FEAC47C02D00FF2602C01E09E
S315080030E0AFF2700C4FF0FF3823F00043CDF850C014
S315080030F065280CD006DC452809D046281DD0472867
S315080031003DD13DE0662818D067287ED138E00021F9
S31508003110112F01DB112000E0781CCDE9000106A97A
S315080031200EA8FFF7EDFCDDE90F010E9A03910021C9
S31508003130009207F1010A04914DE04FF00040009714
S31508003140CDE9011006A90EA8FFF7DAFCDDE90F02A2
S3150800315003920E9B11990022DDF80CA000930492AD
S3150800316011B9791C00EB010AB7EB0A0004D4C0F1C7
S31508003170FF3007F1010A0490AAEB0700019044E02A
S31508003180012F00DA01270021112F01DD112000E0AF
S315080031903846CDE9000106A90EA8FFF7B1FCDDE91E
S315080031A00F010E9A0391002104910092BA46210755
S315080031B00CD40399514500DA8A46BAF1010F05DDA8
S315080031C0009AAAF10101515C302908D0B84202DA06
S315080031D010F1040F06DA0121CDE9011015E0AAF174
S315080031E00101E9E7002805DC049901440491AAEBEA
S315080031F0000102E0411C514500DD8A460499401A47
S31508003200401C01904FF000400290200704D401981A
S31508003210504501DBCDF8048000208DF84F00029858
S315080032200DF14F07B0F1004F25D02B200E900298D4
S315080032304FF0020800280CDA404202902D200E902A
S3150800324007E00A210298FDF7F3F93031029007F8F2
S31508003250011DB8F10001A8F10108F2DC0298002866
S31508003260EFD1791E0E980870307800F0200040F0F3
S31508003270450007F8020D12A8C01B00F107081498AC
S31508003280007800B1012000EB0A01019801EBE0711A
S3150800329005984144401A401E0590E00306D45B4653
S315080032A02146179A059800F05DF8054414980078A9
S315080032B018B15A46179990476D1CE00324D55B460A
S315080032C02146179A059800F04DF805441CE0049825
S315080032D0002807DBDDE90301884203DD0098405C2E
S315080032E0179901E0179930205A469047049805F136
S315080032F00105401C04900198401E019004D12E201F
S315080033005A46179990476D1CBAF10001AAF1010AAD
S31508003310DDDC05E017F8010B5A46179990476D1C36
S31508003320B8F10001A8F10108F4DC5B462146179ABA
S315080033300598ABE62D0000002B00000020000000D9
S315080033402DE9F041044600251E461746880404D494
S3150800335005E039462020B0476D1C641EF9D528467D
S31508003360BDE8F0812DE9F041044600251E46904649
S31508003370C80301D5302700E02027880404D505E0D6
S3150800338041463846B0476D1C641EF9D52846BDE847
S31508003390F0814A68002A06D00A68531C0B60107030
S315080033A04868401E4860704710B50021012000F0AB
S315080033B057FB0021022000F053FB0021092000F0F2
S315080033C023FB4FF47A710A2000F04AFB00210B20F8
S315080033D000F046FB64210C2000F042FB00210D2082
S315080033E000F03EFB00210E2000F00EFB00210F200E
S315080033F000F00AFB0121112000F032FB0121122006
S3150800340000F02EFB0021152000F0CCFA0021162032
S3150800341000F026FB10BD01460020087800024A7815
S31508003420104300028A7810430002CA781043704796
S315080034302DE9F05F04463C49E01C11F800A0BAF1FA
S31508003440050F2DD007DCBAF1050F68D2DFE80AF0C0
S31508003450101316192400BAF1060F25D0BAF1080F71
S3150800346048D0BAF10E0F4ED0BAF11C0F57D144E02E
S3150800347000F004FA54E000F0D3FB51E000F0F6F94E
S315080034804EE02949A01D085C28490870002203213E
S31508003490084600F02BFE43E00120254908703FE06E
S315080034A00120244908703BE01F49601D095C1E4A3B
S315080034B0201D105C41EA0027002518E0A01D2844BD
S315080034C0801C1949085C4FF6FF7101EA0026A01D09
S315080034D02844C01C1449085C304486B22144891D1E
S315080034E0481900F029F88346301D284485B2BD42A4
S315080034F0E4DB15E0FFF758FF12E00B492144881D6D
S3150800350000F018FB0CE00849A01D11F80080E01D2A
S3150800351011F800904946404600F01EFD00E000BF45
S3150800352000BFBDE8F09F0000461A0020371A0020A9
S31508003530351A0020361A00202DE9F0470446267869
S3150800354094F80180A0784FF6FF7101EA0025E0782B
S31508003550284485B2304600F071F90746084800EB62
S3150800356047004078404502D00020BDE8F0872A464B
S31508003570211D304600F03DF881464846F5E7000033
S31508003580DC560008014642F228324A434FF0E0234F
S315080035905A6100229A6101221A6100BF4FF0E022A7
S315080035A0106900F001021AB100F48032002AF5D041
S315080035B000224FF0E0231A619A617047014601EB39
S315080035C0C1024FF0E0235A6100229A6101221A6172
S315080035D000BF4FF0E022106900F001021AB100F4B2
S315080035E08032002AF5D000224FF0E0231A619A6152
S315080035F070472DE9F04105460E461746A5F1090024
S315080036000E283ED2DFE800F0070D13191F3D3D3D99
S31508003610252B3D3D31373946304600F0E5F804465E
S3150800362030E03946304600F059F804462AE0394673
S31508003630304600F07BF8044624E03946304600F070
S3150800364039F804461EE03946304600F05BF8044671
S3150800365018E03946304600F09FF8044612E039462D
S31508003660304600F013F804460CE03946304600F0C0
S3150800367071F8044606E03946304600F0A1F80446DB
S3150800368000E000BF00BF2046BDE8F0812DE9F0410B
S3150800369004460D462946204600F024FA07463946D0
S315080036A0122000F0DDF90646012E01D1BDE8F081B1
S315080036B00020FBE72DE9F04104460D462946204641
S315080036C000F010FA074639460C2000F0C9F90646FC
S315080036D0012E01D1BDE8F0810020FBE72DE9F0417C
S315080036E004460D462946204600F0FCF907463946A9
S315080036F00A2000F0B5F90646012E01D1BDE8F08191
S315080037000020FBE72DE9F04104460D4629462046F0
S3150800371000F0E8F9074639460D2000F0A1F90646FB
S31508003720012E01D1BDE8F0810020FBE72DE9F0412B
S3150800373004460D462946204600F0D4F90746394680
S315080037400B2000F08DF90646012E01D1BDE8F08167
S315080037500020FBE72DE9F04106460F46394630467C
S3150800376000F0BAF905462DB94FF400610948FDF78E
S3150800377093FB04E04FF400610648FDF78BFB2946EE
S31508003780152000F00FF90446012C01D1BDE8F0819F
S315080037900020FBE7000C01402DE9F04104460D46E8
S315080037A02946204600F09EF907463946112000F0C2
S315080037B057F90646012E01D1BDE8F0810020FBE746
S315080037C02DE9F04104460D462946204600F08AF9BF
S315080037D007463946162000F043F90646012E01D160
S315080037E0BDE8F0810020FBE72DE9F04106460F46CB
S315080037F03946304600F073F9054615B1012D02D158
S3150800380000E001E000E000BF00BF2946092000F003
S31508003810FBF80446012C01D1BDE8F0810020FBE746
S3150800382030B502460020002305E012F8015B2C188B
S31508003830E0B25C1CA3B28B42F7DB30BD70B505461F
S3150800384000F012F80646002407E0064810F81400AF
S31508003850A84200D103E0601CC4B2B442F5DB00BF45
S31508003860204670BDDC5600080D20704710B50024B0
S3150800387022460321022000F039FC10BD10B50024B1
S315080038800B48007840B90021204600F04DFAC4B232
S3150800389001200749087004E00121204600F044FA97
S315080038A0C4B222460321002000F020FC10BD00000F
S315080038B0381A0020FDF708FC4FF4A060FDF756FC07
S315080038C0FDF748F9FDF794FC4FF47A70FFF75AFEB6
S315080038D0FEF70EFD4FF47A70FFF754FEFEF774FC00
S315080038E04FF4FA70FFF74EFE4FF4E130FEF7DCFEB8
S315080038F04FF41650FEF730FFFEF7A2FA00F016FB5B
S315080039004FF47A70FFF73EFE1CA12148FEF77AFFB6
S3150800391000202049087010E04FF400611E48FDF7AA
S31508003920B0FAC0F101001D490860FA20FFF72AFE27
S3150800393018480078401C1749087016480078062869
S31508003940EADB4FF440611448FDF7A6FAFDF718FCC8
S3150800395012E013480078012804D0022805D003286D
S3150800396009D105E0FDF752FE05E0FDF751FF02E03B
S31508003970FEF70EF800BF00BFEBE7000020486172B3
S31508003980647761726520696E6974204F4B0D0A0071
S31508003990003801403A1A0020000C0140AC8121424F
S315080039A0F819002070B504460D460026154800781B
S315080039B0012800D170BD2146304600F0B5F906460B
S315080039C00121304600F0B0F906460021304600F0E5
S315080039D0ABF906460121304600F0A6F906462DB990
S315080039E00021304600F0A0F9064604E001213046E1
S315080039F000F09AF9064632460321072000F076FBC6
S31508003A000120D7E7341A002070B504460E46002573
S31508003A1012480078012800D170BD2146284600F0DA
S31508003A2083F905460421284600F07EF9054600215B
S31508003A30284600F079F905460121284600F074F970
S31508003A4005463146284600F06FF905462A46032101
S31508003A50072000F04BFB0120DEE70000341A0020A7
S31508003A6070B505460C4600261A480078012800D18C
S31508003A7070BD2946304600F057F906460221304601
S31508003A8000F052F906460021304600F04DF9064688
S31508003A900421304600F048F90646210E304600F06B
S31508003AA043F90646C4F30741304600F03DF9064699
S31508003AB0C4F30721304600F037F90646E1B230462E
S31508003AC000F032F9064632460321072000F00EFBC5
S31508003AD00120CDE7341A00200246107870470246C6
S31508003AE01078704710B503460C461846FFF793FC46
S31508003AF010BD10B5002203211C2000F0F7FA10BDF6
S31508003B000148007870470000371A002070B504464F
S31508003B1000250020064908702146284600F004F9C9
S31508003B20C5B22A460321052000F0E0FA70BD000060
S31508003B30361A00207CB504462078012810D10BA13E
S31508003B401048FEF75FFEA0796179CDE90010237968
S31508003B50E278A178657805F5FA60FEF7FFF903E0E3
S31508003B6009A10848FEF74EFE7CBD00004765742093
S31508003B7054696D652066726F6D204E6574204F4BD3
S31508003B800D0A0000003801404765742054696D65C8
S31508003B902066726F6D204E6574204572726F7221B1
S31508003BA021210D0A00000000F0B505460E46134611
S31508003BB02A46344605B10EB90020F0BDA24202D904
S31508003BC0E018904208D2002103E0605C5054481C7B
S31508003BD081B29942F9DB07E0194603E0481E275CE3
S31508003BE0175481B20029F9DC2846E6E70146002287
S31508003BF009B900207047002200E0521C11F8013B69
S31508003C00002BFAD11046F5E710B50246012000E070
S31508003C1050430B00A1F10104E1B2F9D110BD000037
S31508003C203EB50024002000900190029025A0FFF7E1
S31508003C30DDFF85B22A4623A1204600F061F8C4B20A
S31508003C4022A0FFF7D3FF85B22A4620A1204600F01E
S31508003C5057F8C4B222A0FFF7C9FF85B22A4620A1A9
S31508003C60204600F04DF8C4B21FA0FFF7BFFF85B28B
S31508003C702A461DA1204600F043F8C4B21CA0FFF74F
S31508003C80B5FF85B22A461AA1204600F039F8C4B213
S31508003C9019A0FFF7ABFF85B22A4617A1204600F008
S31508003CA02FF8C4B215A0FFF7A1FF85B22A4613A1C3
S31508003CB0204600F025F8C4B222460321012000F070
S31508003CC015FA3EBD7B2270223A2200007969766594
S31508003CD064687165727661686A7734670000000007
S31508003CE0222C2276223A2200312E302E3000000075
S31508003CF0222C226D223A0000320000007D000000CE
S31508003D002DE9F04104460E461546064807192A4687
S31508003D1031463846FFF748FF601984B22046BDE8A9
S31508003D20F08100005A1B0020024B1A181170431C20
S31508003D3098B270475A1B00202DE9F04F8BB0044605
S31508003D400D460026B146FEF7E3F98820FDF728F967
S31508003D50FEF714FAE020FDF723F9FEF70FFA002024
S31508003D60FDF71EF9FEF70AFAFEF7D2F98920FDF7E4
S31508003D7017F9FEF703FA0120FDF7E6F8ADF8180083
S31508003D800120FDF7E1F8ADF81A000120FDF7DCF88F
S31508003D90ADF81C000120FDF7D7F8ADF81E0001208C
S31508003DA0FDF7D2F8ADF820000020FDF7CDF8ADF804
S31508003DB02200FEF7C9F9BDF81A00BDF8181040EA46
S31508003DC0012080B20A90BDF82000BDF81E1040EA16
S31508003DD0012080B209900A98FCF7B6FB0190FCF71F
S31508003DE0CCFB07460022224BFCF7CDFA0022214BDA
S31508003DF0CDE90201FCF739FB00221F4BCDE904018E
S31508003E00FCF7BBFA8246FCF7E3FB06460998FCF783
S31508003E109BFB0390FCF7B1FB07460022174BFCF708
S31508003E20B2FA0022134BCDE90401FCF71EFB8246C9
S31508003E30FCF7CEFB814612493046FCF7EFFB11D85A
S31508003E4010493046FCF7E0FB0CD800214846FCF741
S31508003E50E5FB07D80C494846FCF7D6FB02D826608E
S31508003E60C5F80090002009900A900BB0BDE8F08FC5
S31508003E7000E06540E0FFEF40008046400000594002
S31508003E800000A0C10000FA420000C8420B490968B8
S31508003E900B4A126891420FD008490A6809498A42B2
S31508003EA002D38739054A1160044909680878034925
S31508003EB00968491C014A116070470000301A002041
S31508003EC02C1A0020541B002012490968124A12684D
S31508003ED0891A01291CD0104909680E4A12689142AC
S31508003EE006D90D4909680B4A1268891A87290FD21B
S31508003EF009490A6809498A4202D38739064A11607C
S31508003F0005490968087004490968491C024A11608C
S31508003F1070470000301A00202C1A0020541B00207D
S31508003F2010B504462046FEF7C7FA10BD05480649EF
S31508003F30086006490860002005490870FF20054901
S31508003F4008707047CD1A00202C1A0020301A00205D
S31508003F50341A0020371A002070B505460C4665B994
S31508003F6024B908A10F48FEF74DFC0AE0012C08D138
S31508003F700DA10C48FEF746FC03E011A10948FEF71F
S31508003F8041FC70BD747579615F6D6465765F7465B3
S31508003F90737420526F757465204E6F742046696E6F
S31508003FA0640D0A0000380140556E617574686F72B9
S31508003FB0697A6564206D6F64756C650D0A0000008A
S31508003FC0576946692074657374204F4B210D0A00A2
S31508003FD070B50024002509E0FFF758FF38490A881C
S31508003FE00988491C364B1980364988543448008854
S31508003FF0872803D200F09EF80028EDDC30480088B8
S31508004000072800DA70BD42E02E48005D552802D028
S31508004010601C84B23BE02B49601C085CAA2802D0CD
S31508004020601C84B233E02749A01C085C10B1A01CB0
S3150800403084B22CE02349201D085C4FF6FF7101EA83
S3150800404000252049601D085CC01D284485B28E2DB8
S3150800405002D9E01C84B21AE019480088001BA8425D
S3150800406000DA19E06A1E91B2164A1019FFF7D8FB52
S315080040706119491E134A515C884202D0E01C84B279
S3150800408005E02046FFF7D4F9601984B200BF0C4852
S315080040900088001B0728B7DA00BF09480088001BFC
S315080040A00749088008460088002806DD05480119E2
S315080040B0034802880348FFF777FD00BFA2E7000020
S315080040C02A1A0020461A002070B504460D4604B187
S315080040D005B970BD03E02078FFF722FF641C2800AD
S315080040E0A5F101018DB2F6D100BFF2E72DE9F04145
S315080040F005460E461446002755200D490870AA2085
S31508004100487008468670C570201208714C71E01D0B
S3150800411084B2601E81B20648FFF782FB0746601E1E
S3150800412003490F5421460248FFF7CEFFBDE8F08148
S31508004130541B00200448006804490968884201D0D5
S31508004140012070470020FCE72C1A0020301A0020B6
S315080041500000000000000000002F0000000007001B
S31508004160070000147F147F1400242A7F2A12006295
S315080041706408132300364955225000000503000041
S3150800418000001C224100000041221C000014083EC9
S3150800419008140008083E0808000000A0600000088F
S315080041A008080808000060600000002010080402E3
S315080041B0003E5149453E0000427F400000426151A1
S315080041C04946002141454B31001814127F1000273B
S315080041D045454539003C4A494930000171090503FE
S315080041E000364949493600064949291E000036362F
S315080041F00000000056360000000814224100001492
S31508004200141414140000412214080002015109066E
S3150800421000324959513E007C1211127C007F4949EF
S315080042204936003E41414122007F4141221C007F20
S3150800423049494941007F09090901003E4149497A2E
S31508004240007F0808087F0000417F410000204041A8
S315080042503F01007F08142241007F40404040007F14
S31508004260020C027F007F0408107F003E4141413E58
S31508004270007F09090906003E4151215E007F0919A0
S3150800428029460046494949310001017F0101003F9D
S315080042904040403F001F2040201F003F4038403F1D
S315080042A00063140814630007087008070061514981
S315080042B0454300007F41410000552A552A55000014
S315080042C041417F0000040201020400404040404092
S315080042D0000001020400002054545478007F48442A
S315080042E0443800384444442000384444487F003861
S315080042F05454541800087E0901020018A4A4A47C8A
S31508004300007F080404780000447D40000040808453
S315080043107D00007F102844000000417F4000007C9B
S3150800432004180478007C08040478003844444438A7
S3150800433000FC242424180018242418FC007C0804F3
S31508004340040800485454542000043F444020003CCC
S315080043504040207C001C2040201C003C4030403C53
S31508004360004428102844001CA0A0A07C00446454E3
S315080043704C44141414141414000000000000000027
S315080043800000000000000000000000F80000000027
S31508004390000000333000000000100C06100C060068
S315080043A0000000000000000040C07840C0784000CF
S315080043B0043F04043F040400007088FC0830000031
S315080043C0001820FF211E0000F008F000E018000089
S315080043D000211C031E211E0000F008887000000042
S315080043E01E2123241927211010160E000000000094
S315080043F00000000000000000000000E018040200B1
S31508004400000000071820400000020418E000000021
S315080044100040201807000000404080F0804040001F
S315080044200202010F01020200000000F00000000075
S315080044300101011F01010100000000000000000049
S3150800444080B07000000000000000000000000000BE
S315080044500001010101010101000000000000000047
S3150800446000303000000000000000000080601804E2
S31508004470006018060100000000E010080810E000BF
S31508004480000F102020100F00001010F80000000088
S315080044900020203F202000000070080808887000CF
S315080044A0003028242221300000300888884830004F
S315080044B00018202020110E000000C02010F800006F
S315080044C000070424243F240000F808888808080008
S315080044D00019212020110E0000E01088881800001D
S315080044E0000F112020110E0000380808C8380800EF
S315080044F00000003F0000000000708808088870006F
S31508004500001C222121221C0000E010080810E000EF
S315080045100000312222110F00000000C0C000000078
S31508004520000000303000000000000080000000009D
S315080045300000806000000000000080402010080095
S31508004540000102040810200040404040404040005E
S315080045500404040404040400000810204080000039
S315080045600020100804020100007048080808F0003E
S315080045700000003036010000C030C828E810E0000E
S315080045800718272423140B000000C038E000000099
S31508004590203C23020227382008F888888870000003
S315080045A0203F202020110E00C030080808083800D7
S315080045B0071820202010080008F808080810E0004E
S315080045C0203F202020100F0008F88888E8081000EF
S315080045D0203F20202320180008F88888E8081000C3
S315080045E0203F200003000000C030080808380000FB
S315080045F007182020221E020008F808000008F808FC
S31508004600203F210101213F20000808F80808000082
S315080046100020203F2020000000000808F8080800B5
S31508004620C08080807F00000008F888C0281808002D
S31508004630203F20012638200008F808000000000066
S31508004640203F20202020300008F8F800F8F808005D
S31508004650203F003F003F200008F830C00008F80857
S31508004660203F200007183F00E01008080810E00067
S315080046700F10202020100F0008F808080808F0007E
S31508004680203F210101010000E01008080810E000A1
S315080046900F18242438504F0008F888888888700036
S315080046A0203F2000030C30200070880808083800D6
S315080046B00038202121221C00180808F808081800CC
S315080046C00000203F2000000008F808000008F8084D
S315080046D0001F202020201F000878880000C83808FE
S315080046E0000007380E010000F80800F80008F80076
S315080046F0033C0700073C0300081868808068180810
S3150800470020302C03032C30200838C800C83808008D
S315080047100000203F2000000010080808C8380800DC
S315080047202038262120201800000000FE0202020080
S315080047300000007F40404000000C30C00000000030
S31508004740000000010638C00000020202FE00000058
S31508004750004040407F0000000000040202020400FE
S31508004760000000000000000000000000000000003B
S315080047708080808080808080000202040000000023
S31508004780000000000000000000008080808000001B
S315080047900019242222223F2008F800808000000009
S315080047A0003F112020110E000000008080800000CC
S315080047B0000E112020201100000000808088F800DB
S315080047C0000E112020103F2000008080808000000D
S315080047D0001F222222221300008080F08888881871
S315080047E00020203F2020000000008080808080007C
S315080047F0006B94949493600008F800808080000011
S31508004800203F210000203F200080989800000000EB
S315080048100020203F2020000000000080989800001B
S3150800482000C08080807F000008F80000808080003B
S31508004830203F24022D302000000808F80000000060
S315080048400020203F2020000080808080808080001B
S31508004850203F20003F20003F8080008080800000AD
S31508004860203F210000203F2000008080808000003B
S31508004870001F202020201F0080800080800000006C
S3150800488080FFA12020110E0000000080808080009B
S31508004890000E112020A0FF8080808000808080008C
S315080048A020203F21200001000000808080808000B9
S315080048B00033242424241900008080E0808000002E
S315080048C00000001F2020000080800000008080007B
S315080048D0001F202020103F208080800000808080DC
S315080048E000010E300806010080800080008080806C
S315080048F00F300C030C300F00008080008080800091
S315080049000020312E0E3120008080800000808080BB
S3150800491080818E701806010000808080808080006B
S315080049200021302C2221300000000000807C020289
S3150800493000000000003F404000000000FF000000AB
S3150800494000000000FF0000000002027C800000005A
S315080049500040403F00000000000601010202040476
S315080049600000000000000000000000000000000039
S315080049700000000000000000000000000000000029
S315080049800000000000000000000000000000000019
S3150800499000F0F0F0000000000000000000017F01B8
S315080049A00000000000000000001C1C1C00000000A5
S315080049B000008060301C8C60301C0C000000000079
S315080049C000000000000000000000000000000000D9
S315080049D000000000000000E00000000000E0000009
S315080049E00086E69F86868686E69F860000011F016A
S315080049F0010101011F010100000080C06020F820AC
S31508004A00E0C00000000003070C18FF70E1810000F9
S31508004A100000070F10107F100F070000806020604D
S31508004A2080000000E02000000F3020309F70DC3747
S31508004A301030C0000000100E0300071810180700F9
S31508004A400000C02020E0C0000000000080E01F3801
S31508004A50E88703C43C040000070F1810100B070D65
S31508004A601010080000808C4C380000000000000080
S31508004A700000000000000000000000000000000028
S31508004A80000000000000000000000000000080E0B8
S31508004A90300804000000000000FEFF0100000000CE
S31508004AA0000000000000030F182040000004083032
S31508004AB0E0800000000000000000000001FFFE008A
S31508004AC000000000004020180F030000000000004E
S31508004AD0000000000000C0000000000000426666FA
S31508004AE03C18FF183C666642000000000000030000
S31508004AF00000000000000000000080000000000028
S31508004B00001010101010FF101010101000000000F8
S31508004B100000030000000000000000000000000084
S31508004B200000000000000000000000000000000077
S31508004B3000808C4C380000000000000000000000D7
S31508004B4000000000000000000010101010101010E7
S31508004B501010100000000000000000000000000017
S31508004B600000000000000000000000000000000037
S31508004B70000000000000000000001C1C1C000000D3
S31508004B80000000000000000000000000E0380C00F3
S31508004B900000000080701C03000000000060380E52
S31508004BA00100000000000000000080C060202060B6
S31508004BB0C080000000FEFF010000000001FFFE00AB
S31508004BC00001070E181010180E070100000080805B
S31508004BD080C0E000000000000000000000FFFF00A9
S31508004BE00000000000001010101F1F101010000019
S31508004BF00080402020202060C080000000030300C1
S31508004C00804020381F070000001C1A1918181818A9
S31508004C10181F00000080C020202060C0800000000F
S31508004C20000303001010182FE780000000070F107C
S31508004C30101010180F070000000000000000C0E068
S31508004C40F000000000C0B088868180FFFF808000E9
S31508004C50000000000010101F1F1010000000E06088
S31508004C60606060606060000000003F100808081877
S31508004C70F0E0000000070B101010101C0F030000D6
S31508004C80000080C040202020E0C0000000FCFF217A
S31508004C901008080818F0E0000001070C181010109A
S31508004CA0080F03000000C0E06060606060E060001C
S31508004CB0000003000000E0180700000000000000E4
S31508004CC0001F1F00000000000080C0602020202078
S31508004CD060C080000087EF2C1818303068CF83003A
S31508004CE000070F0810101010180F07000000C0C0AA
S31508004CF020202020C0800000001F3F604040402048
S31508004D0010FFFE0000000C1C101010080F03000016
S31508004D100000000000000000000000000000000085
S31508004D20000E0E0E0000000000000000001C1C1CF7
S31508004D300000000000000000000000000000000065
S31508004D4000000000000C0C0000000000000000003D
S31508004D500058380000000000000000000000008035
S31508004D6040201000000010284482010000000000C6
S31508004D700000000000000102040810000000000006
S31508004D800000000000000000008484848484848479
S31508004D908484840000000000000000000000000079
S31508004DA00000102040800000000000000000000005
S31508004DB000000182442810000000100804020100C7
S31508004DC00000000000C020201010101030E0C000C5
S31508004DD00003030000F010080C07030000000000A1
S31508004DE01C1C1C0000000000000000C040602020C1
S31508004DF02040C00000FCFF01F00E03C1FE03807FC7
S31508004E000001070E08111110110904020000000024
S31508004E1080E0E000000000000000807C4340477FFF
S31508004E20F880000010181F1000000000131F1C1047
S31508004E3020E0E02020202060C080000000FFFF1056
S31508004E40101010182FE78000101F1F1010101010D8
S31508004E50180F0700000080C0402020202060E000D6
S31508004E6000FCFF0100000000000001000001070E21
S31508004E70181010100804030020E0E020202020402D
S31508004E80C080000000FFFF000000000001FFFE00D8
S31508004E90101F1F10101018080E07010020E0E02050
S31508004EA0202020202060800000FFFF101010107CBA
S31508004EB000000000101F1F10101010101018060018
S31508004EC020E0E020202020206060800000FFFF1006
S31508004ED01010107C00000100101F1F1000000000B9
S31508004EE000000000000080C06020202040E0000094
S31508004EF000FCFF0100004040C0C140400001070E11
S31508004F00181010100F0F000020E0E020000000002D
S31508004F1020E0E02000FFFF101010101010FFFF0027
S31508004F20101F1F1000000000101F1F100000202077
S31508004F3020E0E020202000000000000000FFFF0025
S31508004F400000000000001010101F1F1010100000B5
S31508004F5000000000202020E0E020202000000000C3
S31508004F60000000FFFF0000000060E0808080C07F36
S31508004F703F00000020E0E020000020A06020200084
S31508004F8000FFFF30187CE3C000000000101F1F1050
S31508004F90000001131F1C181020E0E020000000008C
S31508004FA00000000000FFFF000000000000000000F5
S31508004FB0101F1F10101010101018060020E0E0E057
S31508004FC000000000E0E0E02000FF013FFEC0E01E18
S31508004FD001FFFF00101F1000031F0300101F1F1002
S31508004FE020E0E0C0000000000020E02000FF0003F1
S31508004FF0071C78E08000FF00101F1000000000006A
S31508005000030F1F00000080C060202060C0800000E1
S3150800501000FEFF010000000000FFFE000001070E71
S31508005020181010180C07010020E0E020202020208E
S3150800503060C0800000FFFF2020202020301F0F00C6
S31508005040101F1F100000000000000000000080C0B4
S3150800505060202060C080000000FEFF010000000004
S3150800506000FFFE000001070E1111133C7C672100AA
S3150800507020E0E0202020202060C0800000FFFF10F4
S315080050801030F0D0080F0700101F1F100000000393
S315080050900F1C10100080C060202020204040E00037
S315080050A000070F0C1818303060E08100001F0C084C
S315080050B010101010180F07008060202020E0E02054
S315080050C0202060800100000000FFFF0000000001B2
S315080050D000000000101F1F100000000020E0E02064
S315080050E0000000000020E02000FFFF000000000094
S315080050F00000FF0000070F18101010101008070016
S315080051002060E0E02000000020E060200000077F2B
S31508005110F88000807C03000000000000071F1C07C1
S315080051200000000020E0E02000E0E0200020E02071
S315080051300007FFF8E01FFFFCE01F00000000031F48
S315080051400300011F03000000002060E0A00000200B
S31508005150E0602000000000038F7CF8C60100000014
S315080051600010181E130001171F1810002060E0E039
S315080051702000000020E06020000001073EF8E0184B
S315080051800700000000000010101F1F10100000008C
S3150800519000806020202020A0E0E020000000000021
S315080051A0C0F03E0F0300000000101C1F171010105F
S315080051B0101806000000000000FC040404040400A3
S315080051C00000000000FF00000000000000000000D2
S315080051D0007F404040404000000010E00000000012
S315080051E00000000000000000031C608000000000B2
S315080051F000000000000000030C708000000004049A
S31508005200040404FC0000000000000000000000FF89
S3150800521000000000000040404040407F00000000C1
S3150800522000000010080C040C081000000000000024
S315080052300000000000000000000000000000000060
S315080052400000000000000000000000000000000050
S315080052500000000000000000000000008080808040
S315080052608080808080808080000000040408080018
S315080052700000000000000000000000000000000020
S315080052800000000000000000000000000000000010
S315080052900000000000000000000098D844642424A0
S315080052A0FCF80000000F1F18101010081F1F101818
S315080052B00020E0F000000000000000000000FFFFF2
S315080052C0180804040CF8F00000001F0F181010103E
S315080052D0180F030000000000000000000000000096
S315080052E000E0F8180404043C3800000000030F0C22
S315080052F01010101008060000000000000000002032
S31508005300E0F0000000E0F81C04040408FFFF0000B9
S3150800531000030F18101010081F0F080000000000E7
S3150800532000000000000000000000E0F84844444483
S315080053304C7870000000030F0C18101010080400B9
S315080053400000000080C0602020E0C00000040404C3
S31508005350FFFF040404040000000010101F1F1010B3
S31508005360100000000000000000000000000000001F
S31508005370000070F88C04048CF874040C007076CF66
S315080053808D8D8D89C87870000020E0F0000000003F
S31508005390000000000000FFFF08040404FCF80000F9
S315080053A000101F1F100000101F1F10000000000033
S315080053B000606000000000000000040404FCFC001B
S315080053C00000000000001010101F1F101010000031
S315080053D000000000000000606000000000000000FF
S315080053E0040404FCFC0000000000C0C08080C07FEC
S315080053F03F0000000020E0F0000000000000000070
S315080054000000FFFF80C0F41C0404000000101F1FEA
S315080054101100031F1C1010000000202020E0F000DF
S31508005420000000000000000000FFFF000000000070
S3150800543000001010101F1F101010000000000000C0
S31508005440000000000000000004FCFC0804FCFC0846
S3150800545004FCFC00101F1F10001F1F10001F1F1048
S315080054600000000000000000000000000004FCFC32
S3150800547008080404FCF8000000101F1F10000010A4
S315080054801F1F1000000000000000000000000000C0
S3150800549000E0F0180C04040C18F0E00000030F0CF0
S315080054A0101010100C0F0300000000000000000090
S315080054B0000000000004FCFC080404040CF8F000DA
S315080054C00080FFFF889010101C0F030000000000EA
S315080054D0000000000000000000E0F81C04040408B6
S315080054E0F8FC000000030F1810109088FFFF8000DA
S315080054F0000000000000000000000000040404FC96
S31508005500FC100804040C0C001010101F1F101010BB
